{
  "contractName": "ChainlinkService",
  "abi": [
    {
      "inputs": [
        {
          "internalType": "address",
          "name": "feedAddress",
          "type": "address"
        }
      ],
      "name": "getLatestPrice",
      "outputs": [
        {
          "internalType": "int256",
          "name": "",
          "type": "int256"
        },
        {
          "internalType": "uint256",
          "name": "",
          "type": "uint256"
        },
        {
          "internalType": "uint8",
          "name": "",
          "type": "uint8"
        }
      ],
      "stateMutability": "view",
      "type": "function"
    }
  ],
  "bytecode": "0x608060405234801561001057600080fd5b50610431806100206000396000f3fe608060405234801561001057600080fd5b506004361061002b5760003560e01c806316345f1814610030575b600080fd5b61004a600480360381019061004591906101f2565b610062565b604051610059939291906102e8565b60405180910390f35b6000806000808490506000808273ffffffffffffffffffffffffffffffffffffffff1663feaf968c6040518163ffffffff1660e01b815260040160a06040518083038186803b1580156100b457600080fd5b505afa1580156100c8573d6000803e3d6000fd5b505050506040513d601f19601f820116820180604052508101906100ec919061021b565b5093505092505060008373ffffffffffffffffffffffffffffffffffffffff1663313ce5676040518163ffffffff1660e01b815260040160206040518083038186803b15801561013b57600080fd5b505afa15801561014f573d6000803e3d6000fd5b505050506040513d601f19601f820116820180604052508101906101739190610292565b9050828282965096509650505050509193909250565b60008135905061019881610388565b92915050565b6000815190506101ad8161039f565b92915050565b6000815190506101c2816103b6565b92915050565b6000815190506101d7816103e4565b92915050565b6000815190506101ec816103cd565b92915050565b60006020828403121561020457600080fd5b600061021284828501610189565b91505092915050565b600080600080600060a0868803121561023357600080fd5b6000610241888289016101c8565b95505060206102528882890161019e565b9450506040610263888289016101b3565b9350506060610274888289016101b3565b9250506080610285888289016101c8565b9150509295509295909350565b6000602082840312156102a457600080fd5b60006102b2848285016101dd565b91505092915050565b6102c481610331565b82525050565b6102d38161035b565b82525050565b6102e281610365565b82525050565b60006060820190506102fd60008301866102bb565b61030a60208301856102ca565b61031760408301846102d9565b949350505050565b600061032a8261033b565b9050919050565b6000819050919050565b600073ffffffffffffffffffffffffffffffffffffffff82169050919050565b6000819050919050565b600060ff82169050919050565b600069ffffffffffffffffffff82169050919050565b6103918161031f565b811461039c57600080fd5b50565b6103a881610331565b81146103b357600080fd5b50565b6103bf8161035b565b81146103ca57600080fd5b50565b6103d681610365565b81146103e157600080fd5b50565b6103ed81610372565b81146103f857600080fd5b5056fea2646970667358221220c972451b3ca8e52edb93d74e85084a2178c956411a9d7deb41729b63dc093f6a64736f6c63430008010033",
  "immutableReferences": {},
  "source": "// SPDX-License-Identifier: MIT\npragma solidity ^0.8.0;\nimport \"@chainlink/contracts/src/v0.8/interfaces/AggregatorV3Interface.sol\";\n\ncontract ChainlinkService {\n    function getLatestPrice(address feedAddress)\n        public\n        view\n        returns (\n            int256,\n            uint256,\n            uint8\n        )\n    {\n        AggregatorV3Interface priceFeed = AggregatorV3Interface(feedAddress);\n        (, int256 price, , uint256 timeStamp, ) = priceFeed.latestRoundData();\n        uint8 decimal = priceFeed.decimals();\n        return (price, timeStamp, decimal);\n    }\n}\n",
  "sourcePath": "/home/beno/Desktop/Projects/ICO-demo/contracts/oracle/ChainlinkService.sol",
  "compiler": {
    "name": "solc",
    "version": "0.8.1+commit.df193b15.Emscripten.clang"
  },
  "schemaVersion": "3.4.1",
  "updatedAt": "2021-09-26T10:35:30.827Z",
  "devdoc": {
    "kind": "dev",
    "methods": {},
    "version": 1
  },
  "userdoc": {
    "kind": "user",
    "methods": {},
    "version": 1
  }
}