{
  "contractName": "ICO",
  "abi": [
    {
      "inputs": [
        {
          "internalType": "string",
          "name": "_symbol",
          "type": "string"
        },
        {
          "internalType": "string",
          "name": "_name",
          "type": "string"
        },
        {
          "internalType": "uint256",
          "name": "_amount",
          "type": "uint256"
        },
        {
          "internalType": "address payable",
          "name": "_wallet",
          "type": "address"
        },
        {
          "internalType": "contract PriceOracle",
          "name": "_oracle",
          "type": "address"
        }
      ],
      "stateMutability": "nonpayable",
      "type": "constructor"
    },
    {
      "anonymous": false,
      "inputs": [
        {
          "indexed": false,
          "internalType": "string",
          "name": "text",
          "type": "string"
        }
      ],
      "name": "EthRefunded",
      "type": "event"
    },
    {
      "anonymous": false,
      "inputs": [
        {
          "indexed": true,
          "internalType": "address",
          "name": "previousOwner",
          "type": "address"
        },
        {
          "indexed": true,
          "internalType": "address",
          "name": "newOwner",
          "type": "address"
        }
      ],
      "name": "OwnershipTransferred",
      "type": "event"
    },
    {
      "anonymous": false,
      "inputs": [
        {
          "indexed": true,
          "internalType": "address",
          "name": "purchaser",
          "type": "address"
        },
        {
          "indexed": true,
          "internalType": "address",
          "name": "beneficiary",
          "type": "address"
        },
        {
          "indexed": false,
          "internalType": "uint256",
          "name": "value",
          "type": "uint256"
        },
        {
          "indexed": false,
          "internalType": "uint256",
          "name": "amount",
          "type": "uint256"
        }
      ],
      "name": "TokensPurchased",
      "type": "event"
    },
    {
      "stateMutability": "payable",
      "type": "fallback"
    },
    {
      "inputs": [],
      "name": "finalSaleRate",
      "outputs": [
        {
          "internalType": "uint256",
          "name": "",
          "type": "uint256"
        }
      ],
      "stateMutability": "view",
      "type": "function"
    },
    {
      "inputs": [],
      "name": "maxTokens",
      "outputs": [
        {
          "internalType": "uint256",
          "name": "",
          "type": "uint256"
        }
      ],
      "stateMutability": "view",
      "type": "function"
    },
    {
      "inputs": [],
      "name": "oracle",
      "outputs": [
        {
          "internalType": "contract PriceOracle",
          "name": "",
          "type": "address"
        }
      ],
      "stateMutability": "view",
      "type": "function"
    },
    {
      "inputs": [],
      "name": "owner",
      "outputs": [
        {
          "internalType": "address",
          "name": "",
          "type": "address"
        }
      ],
      "stateMutability": "view",
      "type": "function"
    },
    {
      "inputs": [],
      "name": "preSaleRate",
      "outputs": [
        {
          "internalType": "uint256",
          "name": "",
          "type": "uint256"
        }
      ],
      "stateMutability": "view",
      "type": "function"
    },
    {
      "inputs": [],
      "name": "preSaleTokens",
      "outputs": [
        {
          "internalType": "uint256",
          "name": "",
          "type": "uint256"
        }
      ],
      "stateMutability": "view",
      "type": "function"
    },
    {
      "inputs": [],
      "name": "renounceOwnership",
      "outputs": [],
      "stateMutability": "nonpayable",
      "type": "function"
    },
    {
      "inputs": [],
      "name": "seedSaleRate",
      "outputs": [
        {
          "internalType": "uint256",
          "name": "",
          "type": "uint256"
        }
      ],
      "stateMutability": "view",
      "type": "function"
    },
    {
      "inputs": [],
      "name": "seedSaleTokens",
      "outputs": [
        {
          "internalType": "uint256",
          "name": "",
          "type": "uint256"
        }
      ],
      "stateMutability": "view",
      "type": "function"
    },
    {
      "inputs": [],
      "name": "stage",
      "outputs": [
        {
          "internalType": "enum ICO.ICOStage",
          "name": "",
          "type": "uint8"
        }
      ],
      "stateMutability": "view",
      "type": "function"
    },
    {
      "inputs": [],
      "name": "token",
      "outputs": [
        {
          "internalType": "contract Token",
          "name": "",
          "type": "address"
        }
      ],
      "stateMutability": "view",
      "type": "function"
    },
    {
      "inputs": [],
      "name": "totalTokensPurchased",
      "outputs": [
        {
          "internalType": "uint256",
          "name": "",
          "type": "uint256"
        }
      ],
      "stateMutability": "view",
      "type": "function"
    },
    {
      "inputs": [
        {
          "internalType": "address",
          "name": "newOwner",
          "type": "address"
        }
      ],
      "name": "transferOwnership",
      "outputs": [],
      "stateMutability": "nonpayable",
      "type": "function"
    },
    {
      "inputs": [],
      "name": "wallet",
      "outputs": [
        {
          "internalType": "address payable",
          "name": "",
          "type": "address"
        }
      ],
      "stateMutability": "view",
      "type": "function"
    },
    {
      "inputs": [],
      "name": "weiRaised",
      "outputs": [
        {
          "internalType": "uint256",
          "name": "",
          "type": "uint256"
        }
      ],
      "stateMutability": "view",
      "type": "function"
    },
    {
      "inputs": [
        {
          "internalType": "uint256",
          "name": "value",
          "type": "uint256"
        }
      ],
      "name": "setICOStage",
      "outputs": [],
      "stateMutability": "nonpayable",
      "type": "function"
    },
    {
      "inputs": [
        {
          "internalType": "uint256",
          "name": "_finalSaleRate",
          "type": "uint256"
        }
      ],
      "name": "setFinalSaleRate",
      "outputs": [],
      "stateMutability": "nonpayable",
      "type": "function"
    },
    {
      "inputs": [
        {
          "internalType": "address",
          "name": "beneficiary",
          "type": "address"
        }
      ],
      "name": "buyTokens",
      "outputs": [],
      "stateMutability": "payable",
      "type": "function"
    }
  ],
  "bytecode": "0x60806040526000600360146101000a81548160ff0219169083600281111562000051577f4e487b7100000000000000000000000000000000000000000000000000000000600052602160045260246000fd5b02179055506a52b7d2dcc80cd2e4000000600755662386f26fc100006008556a18d0bf423c03d8de00000060095566470de4df820000600a556a295be96e64066972000000600b55348015620000a657600080fd5b50604051620041cf380380620041cf8339818101604052810190620000cc91906200038e565b620000ec620000e0620001fd60201b60201c565b6200020560201b60201c565b600180819055508484846040516200010490620002c9565b620001129392919062000494565b604051809103906000f0801580156200012f573d6000803e3d6000fd5b50600260006101000a81548173ffffffffffffffffffffffffffffffffffffffff021916908373ffffffffffffffffffffffffffffffffffffffff16021790555081600460006101000a81548173ffffffffffffffffffffffffffffffffffffffff021916908373ffffffffffffffffffffffffffffffffffffffff16021790555080600360006101000a81548173ffffffffffffffffffffffffffffffffffffffff021916908373ffffffffffffffffffffffffffffffffffffffff1602179055505050505050620006ba565b600033905090565b60008060009054906101000a900473ffffffffffffffffffffffffffffffffffffffff169050816000806101000a81548173ffffffffffffffffffffffffffffffffffffffff021916908373ffffffffffffffffffffffffffffffffffffffff1602179055508173ffffffffffffffffffffffffffffffffffffffff168173ffffffffffffffffffffffffffffffffffffffff167f8be0079c531659141344cd1fd0a4f28419497f9722a3daafe3b4186f6b6457e060405160405180910390a35050565b611a42806200278d83390190565b6000620002ee620002e88462000508565b620004df565b9050828152602081018484840111156200030757600080fd5b62000314848285620005c0565b509392505050565b6000815190506200032d816200066c565b92915050565b600081519050620003448162000686565b92915050565b600082601f8301126200035c57600080fd5b81516200036e848260208601620002d7565b91505092915050565b6000815190506200038881620006a0565b92915050565b600080600080600060a08688031215620003a757600080fd5b600086015167ffffffffffffffff811115620003c257600080fd5b620003d0888289016200034a565b955050602086015167ffffffffffffffff811115620003ee57600080fd5b620003fc888289016200034a565b94505060406200040f8882890162000377565b935050606062000422888289016200031c565b9250506080620004358882890162000333565b9150509295509295909350565b60006200044f826200053e565b6200045b818562000549565b93506200046d818560208601620005c0565b62000478816200065b565b840191505092915050565b6200048e81620005b6565b82525050565b60006060820190508181036000830152620004b0818662000442565b90508181036020830152620004c6818562000442565b9050620004d7604083018462000483565b949350505050565b6000620004eb620004fe565b9050620004f98282620005f6565b919050565b6000604051905090565b600067ffffffffffffffff8211156200052657620005256200062c565b5b62000531826200065b565b9050602081019050919050565b600081519050919050565b600082825260208201905092915050565b6000620005678262000596565b9050919050565b60006200057b8262000596565b9050919050565b60006200058f826200055a565b9050919050565b600073ffffffffffffffffffffffffffffffffffffffff82169050919050565b6000819050919050565b60005b83811015620005e0578082015181840152602081019050620005c3565b83811115620005f0576000848401525b50505050565b62000601826200065b565b810181811067ffffffffffffffff821117156200062357620006226200062c565b5b80604052505050565b7f4e487b7100000000000000000000000000000000000000000000000000000000600052604160045260246000fd5b6000601f19601f8301169050919050565b62000677816200056e565b81146200068357600080fd5b50565b620006918162000582565b81146200069d57600080fd5b50565b620006ab81620005b6565b8114620006b757600080fd5b50565b6120c380620006ca6000396000f3fe60806040526004361061010d5760003560e01c8063c040e6b811610095578063e831574211610064578063e831574214610337578063ec8ac4d814610362578063f2fde38b1461037e578063f623c883146103a7578063fc0c546a146103d25761010e565b8063c040e6b81461028d578063d0640082146102b8578063d833dbe9146102e1578063e0e7d57c1461030c5761010e565b80637113adb5116100dc5780637113adb5146101ca578063715018a6146101f55780637dc0d1d01461020c5780638da5cb5b14610237578063a277d5b1146102625761010e565b80630fe83bb8146101205780632990194a1461014b5780634042b66f14610174578063521eb2731461019f5761010e565b5b61011e6101196103fd565b610405565b005b34801561012c57600080fd5b506101356108ad565b6040516101429190611aea565b60405180910390f35b34801561015757600080fd5b50610172600480360381019061016d919061160a565b6108b3565b005b34801561018057600080fd5b50610189610a60565b6040516101969190611aea565b60405180910390f35b3480156101ab57600080fd5b506101b4610a66565b6040516101c191906118d3565b60405180910390f35b3480156101d657600080fd5b506101df610a8c565b6040516101ec9190611aea565b60405180910390f35b34801561020157600080fd5b5061020a610a92565b005b34801561021857600080fd5b50610221610b1a565b60405161022e9190611917565b60405180910390f35b34801561024357600080fd5b5061024c610b40565b60405161025991906118b8565b60405180910390f35b34801561026e57600080fd5b50610277610b69565b6040516102849190611aea565b60405180910390f35b34801561029957600080fd5b506102a2610b6f565b6040516102af919061194d565b60405180910390f35b3480156102c457600080fd5b506102df60048036038101906102da919061160a565b610b82565b005b3480156102ed57600080fd5b506102f6610c08565b6040516103039190611aea565b60405180910390f35b34801561031857600080fd5b50610321610c0e565b60405161032e9190611aea565b60405180910390f35b34801561034357600080fd5b5061034c610c14565b6040516103599190611aea565b60405180910390f35b61037c600480360381019061037791906115b8565b610405565b005b34801561038a57600080fd5b506103a560048036038101906103a091906115b8565b610c1a565b005b3480156103b357600080fd5b506103bc610d12565b6040516103c99190611aea565b60405180910390f35b3480156103de57600080fd5b506103e7610d18565b6040516103f49190611932565b60405180910390f35b600033905090565b6002600154141561044b576040517f08c379a000000000000000000000000000000000000000000000000000000000815260040161044290611aca565b60405180910390fd5b600260018190555060003490506104628282610d3e565b600061046d82610df6565b9050600060028111156104a9577f4e487b7100000000000000000000000000000000000000000000000000000000600052602160045260246000fd5b600360149054906101000a900460ff1660028111156104f1577f4e487b7100000000000000000000000000000000000000000000000000000000600052602160045260246000fd5b14801561050c57506009548160065461050a9190611b60565b115b15610594573373ffffffffffffffffffffffffffffffffffffffff166108fc349081150290604051600060405180830381858888f19350505050158015610557573d6000803e3d6000fd5b507fc0283f9c45b2118c7ec26e4f4bf06fc486f94a186fb38dc5dff372d9cb709d376040516105859061198a565b60405180910390a150506108a3565b600160028111156105ce577f4e487b7100000000000000000000000000000000000000000000000000000000600052602160045260246000fd5b600360149054906101000a900460ff166002811115610616577f4e487b7100000000000000000000000000000000000000000000000000000000600052602160045260246000fd5b14801561063e5750600b5460095461062e9190611b60565b8160065461063c9190611b60565b115b156106c6573373ffffffffffffffffffffffffffffffffffffffff166108fc349081150290604051600060405180830381858888f19350505050158015610689573d6000803e3d6000fd5b507fc0283f9c45b2118c7ec26e4f4bf06fc486f94a186fb38dc5dff372d9cb709d376040516106b790611a6a565b60405180910390a150506108a3565b6002808111156106ff577f4e487b7100000000000000000000000000000000000000000000000000000000600052602160045260246000fd5b600360149054906101000a900460ff166002811115610747577f4e487b7100000000000000000000000000000000000000000000000000000000600052602160045260246000fd5b1480156107625750600754816006546107609190611b60565b115b156107ea573373ffffffffffffffffffffffffffffffffffffffff166108fc349081150290604051600060405180830381858888f193505050501580156107ad573d6000803e3d6000fd5b507fc0283f9c45b2118c7ec26e4f4bf06fc486f94a186fb38dc5dff372d9cb709d376040516107db90611a2a565b60405180910390a150506108a3565b6107ff826005546110af90919063ffffffff16565b60058190555061081a816006546110af90919063ffffffff16565b60068190555061082a83826110c5565b8273ffffffffffffffffffffffffffffffffffffffff166108496103fd565b73ffffffffffffffffffffffffffffffffffffffff167f6faf93231a456e552dbc9961f58d9713ee4f2e69d15f1975b050ef0911053a7b8484604051610890929190611b05565b60405180910390a36108a0611116565b50505b6001808190555050565b60095481565b6108bb6103fd565b73ffffffffffffffffffffffffffffffffffffffff166108d9610b40565b73ffffffffffffffffffffffffffffffffffffffff161461092f576040517f08c379a000000000000000000000000000000000000000000000000000000000815260040161092690611a4a565b60405180910390fd5b6000816000600281111561096c577f4e487b7100000000000000000000000000000000000000000000000000000000600052602160045260246000fd5b141561097b5760009050610a0c565b81600160028111156109b6577f4e487b7100000000000000000000000000000000000000000000000000000000600052602160045260246000fd5b14156109c55760019050610a0b565b816002808111156109ff577f4e487b7100000000000000000000000000000000000000000000000000000000600052602160045260246000fd5b1415610a0a57600290505b5b5b80600360146101000a81548160ff02191690836002811115610a57577f4e487b7100000000000000000000000000000000000000000000000000000000600052602160045260246000fd5b02179055505050565b60055481565b600460009054906101000a900473ffffffffffffffffffffffffffffffffffffffff1681565b600a5481565b610a9a6103fd565b73ffffffffffffffffffffffffffffffffffffffff16610ab8610b40565b73ffffffffffffffffffffffffffffffffffffffff1614610b0e576040517f08c379a0000000000000000000000000000000000000000000000000000000008152600401610b0590611a4a565b60405180910390fd5b610b186000611181565b565b600360009054906101000a900473ffffffffffffffffffffffffffffffffffffffff1681565b60008060009054906101000a900473ffffffffffffffffffffffffffffffffffffffff16905090565b60065481565b600360149054906101000a900460ff1681565b610b8a6103fd565b73ffffffffffffffffffffffffffffffffffffffff16610ba8610b40565b73ffffffffffffffffffffffffffffffffffffffff1614610bfe576040517f08c379a0000000000000000000000000000000000000000000000000000000008152600401610bf590611a4a565b60405180910390fd5b80600c8190555050565b60085481565b600b5481565b60075481565b610c226103fd565b73ffffffffffffffffffffffffffffffffffffffff16610c40610b40565b73ffffffffffffffffffffffffffffffffffffffff1614610c96576040517f08c379a0000000000000000000000000000000000000000000000000000000008152600401610c8d90611a4a565b60405180910390fd5b600073ffffffffffffffffffffffffffffffffffffffff168173ffffffffffffffffffffffffffffffffffffffff161415610d06576040517f08c379a0000000000000000000000000000000000000000000000000000000008152600401610cfd906119aa565b60405180910390fd5b610d0f81611181565b50565b600c5481565b600260009054906101000a900473ffffffffffffffffffffffffffffffffffffffff1681565b600073ffffffffffffffffffffffffffffffffffffffff168273ffffffffffffffffffffffffffffffffffffffff161415610dae576040517f08c379a0000000000000000000000000000000000000000000000000000000008152600401610da5906119ca565b60405180910390fd5b6000811415610df2576040517f08c379a0000000000000000000000000000000000000000000000000000000008152600401610de9906119ea565b60405180910390fd5b5050565b600080600360009054906101000a900473ffffffffffffffffffffffffffffffffffffffff1673ffffffffffffffffffffffffffffffffffffffff1663a607a8d96040518163ffffffff1660e01b815260040160206040518083038186803b158015610e6157600080fd5b505afa158015610e75573d6000803e3d6000fd5b505050506040513d601f19601f82011682018060405250810190610e999190611633565b90506000610eb0848361124590919063ffffffff16565b905060006002811115610eec577f4e487b7100000000000000000000000000000000000000000000000000000000600052602160045260246000fd5b600360149054906101000a900460ff166002811115610f34577f4e487b7100000000000000000000000000000000000000000000000000000000600052602160045260246000fd5b1415610f5857610f4f6008548261125b90919063ffffffff16565b925050506110aa565b60016002811115610f92577f4e487b7100000000000000000000000000000000000000000000000000000000600052602160045260246000fd5b600360149054906101000a900460ff166002811115610fda577f4e487b7100000000000000000000000000000000000000000000000000000000600052602160045260246000fd5b1415610ffe57610ff5600a548261125b90919063ffffffff16565b925050506110aa565b600280811115611037577f4e487b7100000000000000000000000000000000000000000000000000000000600052602160045260246000fd5b600360149054906101000a900460ff16600281111561107f577f4e487b7100000000000000000000000000000000000000000000000000000000600052602160045260246000fd5b14156110a35761109a600c548261125b90919063ffffffff16565b925050506110aa565b6000925050505b919050565b600081836110bd9190611b60565b905092915050565b6111128282600260009054906101000a900473ffffffffffffffffffffffffffffffffffffffff1673ffffffffffffffffffffffffffffffffffffffff166112719092919063ffffffff16565b5050565b600460009054906101000a900473ffffffffffffffffffffffffffffffffffffffff1673ffffffffffffffffffffffffffffffffffffffff166108fc349081150290604051600060405180830381858888f1935050505015801561117e573d6000803e3d6000fd5b50565b60008060009054906101000a900473ffffffffffffffffffffffffffffffffffffffff169050816000806101000a81548173ffffffffffffffffffffffffffffffffffffffff021916908373ffffffffffffffffffffffffffffffffffffffff1602179055508173ffffffffffffffffffffffffffffffffffffffff168173ffffffffffffffffffffffffffffffffffffffff167f8be0079c531659141344cd1fd0a4f28419497f9722a3daafe3b4186f6b6457e060405160405180910390a35050565b600081836112539190611be7565b905092915050565b600081836112699190611bb6565b905092915050565b6112f28363a9059cbb60e01b84846040516024016112909291906118ee565b604051602081830303815290604052907bffffffffffffffffffffffffffffffffffffffffffffffffffffffff19166020820180517bffffffffffffffffffffffffffffffffffffffffffffffffffffffff83818316178352505050506112f7565b505050565b6000611359826040518060400160405280602081526020017f5361666545524332303a206c6f772d6c6576656c2063616c6c206661696c65648152508573ffffffffffffffffffffffffffffffffffffffff166113be9092919063ffffffff16565b90506000815111156113b9578080602001905181019061137991906115e1565b6113b8576040517f08c379a00000000000000000000000000000000000000000000000000000000081526004016113af90611aaa565b60405180910390fd5b5b505050565b60606113cd84846000856113d6565b90509392505050565b60608247101561141b576040517f08c379a000000000000000000000000000000000000000000000000000000000815260040161141290611a0a565b60405180910390fd5b611424856114ea565b611463576040517f08c379a000000000000000000000000000000000000000000000000000000000815260040161145a90611a8a565b60405180910390fd5b6000808673ffffffffffffffffffffffffffffffffffffffff16858760405161148c91906118a1565b60006040518083038185875af1925050503d80600081146114c9576040519150601f19603f3d011682016040523d82523d6000602084013e6114ce565b606091505b50915091506114de8282866114fd565b92505050949350505050565b600080823b905060008111915050919050565b6060831561150d5782905061155d565b6000835111156115205782518084602001fd5b816040517f08c379a00000000000000000000000000000000000000000000000000000000081526004016115549190611968565b60405180910390fd5b9392505050565b60008135905061157381612048565b92915050565b6000815190506115888161205f565b92915050565b60008135905061159d81612076565b92915050565b6000815190506115b281612076565b92915050565b6000602082840312156115ca57600080fd5b60006115d884828501611564565b91505092915050565b6000602082840312156115f357600080fd5b600061160184828501611579565b91505092915050565b60006020828403121561161c57600080fd5b600061162a8482850161158e565b91505092915050565b60006020828403121561164557600080fd5b6000611653848285016115a3565b91505092915050565b61166581611c53565b82525050565b61167481611c41565b82525050565b600061168582611b2e565b61168f8185611b44565b935061169f818560208601611d08565b80840191505092915050565b6116b481611cae565b82525050565b6116c381611cd2565b82525050565b6116d281611cf6565b82525050565b60006116e382611b39565b6116ed8185611b4f565b93506116fd818560208601611d08565b61170681611dc8565b840191505092915050565b600061171e601283611b4f565b915061172982611dd9565b602082019050919050565b6000611741602683611b4f565b915061174c82611e02565b604082019050919050565b6000611764602483611b4f565b915061176f82611e51565b604082019050919050565b6000611787601383611b4f565b915061179282611ea0565b602082019050919050565b60006117aa602683611b4f565b91506117b582611ec9565b604082019050919050565b60006117cd601483611b4f565b91506117d882611f18565b602082019050919050565b60006117f0602083611b4f565b91506117fb82611f41565b602082019050919050565b6000611813601383611b4f565b915061181e82611f6a565b602082019050919050565b6000611836601d83611b4f565b915061184182611f93565b602082019050919050565b6000611859602a83611b4f565b915061186482611fbc565b604082019050919050565b600061187c601f83611b4f565b91506118878261200b565b602082019050919050565b61189b81611ca4565b82525050565b60006118ad828461167a565b915081905092915050565b60006020820190506118cd600083018461166b565b92915050565b60006020820190506118e8600083018461165c565b92915050565b6000604082019050611903600083018561166b565b6119106020830184611892565b9392505050565b600060208201905061192c60008301846116ab565b92915050565b600060208201905061194760008301846116ba565b92915050565b600060208201905061196260008301846116c9565b92915050565b6000602082019050818103600083015261198281846116d8565b905092915050565b600060208201905081810360008301526119a381611711565b9050919050565b600060208201905081810360008301526119c381611734565b9050919050565b600060208201905081810360008301526119e381611757565b9050919050565b60006020820190508181036000830152611a038161177a565b9050919050565b60006020820190508181036000830152611a238161179d565b9050919050565b60006020820190508181036000830152611a43816117c0565b9050919050565b60006020820190508181036000830152611a63816117e3565b9050919050565b60006020820190508181036000830152611a8381611806565b9050919050565b60006020820190508181036000830152611aa381611829565b9050919050565b60006020820190508181036000830152611ac38161184c565b9050919050565b60006020820190508181036000830152611ae38161186f565b9050919050565b6000602082019050611aff6000830184611892565b92915050565b6000604082019050611b1a6000830185611892565b611b276020830184611892565b9392505050565b600081519050919050565b600081519050919050565b600081905092915050565b600082825260208201905092915050565b6000611b6b82611ca4565b9150611b7683611ca4565b9250827fffffffffffffffffffffffffffffffffffffffffffffffffffffffffffffffff03821115611bab57611baa611d3b565b5b828201905092915050565b6000611bc182611ca4565b9150611bcc83611ca4565b925082611bdc57611bdb611d6a565b5b828204905092915050565b6000611bf282611ca4565b9150611bfd83611ca4565b9250817fffffffffffffffffffffffffffffffffffffffffffffffffffffffffffffffff0483118215151615611c3657611c35611d3b565b5b828202905092915050565b6000611c4c82611c84565b9050919050565b6000611c5e82611c84565b9050919050565b60008115159050919050565b6000819050611c7f82612034565b919050565b600073ffffffffffffffffffffffffffffffffffffffff82169050919050565b6000819050919050565b6000611cb982611cc0565b9050919050565b6000611ccb82611c84565b9050919050565b6000611cdd82611ce4565b9050919050565b6000611cef82611c84565b9050919050565b6000611d0182611c71565b9050919050565b60005b83811015611d26578082015181840152602081019050611d0b565b83811115611d35576000848401525b50505050565b7f4e487b7100000000000000000000000000000000000000000000000000000000600052601160045260246000fd5b7f4e487b7100000000000000000000000000000000000000000000000000000000600052601260045260246000fd5b7f4e487b7100000000000000000000000000000000000000000000000000000000600052602160045260246000fd5b6000601f19601f8301169050919050565b7f5072652053616c65204c696d6974204869740000000000000000000000000000600082015250565b7f4f776e61626c653a206e6577206f776e657220697320746865207a65726f206160008201527f6464726573730000000000000000000000000000000000000000000000000000602082015250565b7f49434f3a2062656e656669636961727920697320746865207a65726f2061646460008201527f7265737300000000000000000000000000000000000000000000000000000000602082015250565b7f49434f3a20776569416d6f756e74206973203000000000000000000000000000600082015250565b7f416464726573733a20696e73756666696369656e742062616c616e636520666f60008201527f722063616c6c0000000000000000000000000000000000000000000000000000602082015250565b7f46696e616c2053616c65204c696d697420486974000000000000000000000000600082015250565b7f4f776e61626c653a2063616c6c6572206973206e6f7420746865206f776e6572600082015250565b7f536565642053616c65204c696d69742048697400000000000000000000000000600082015250565b7f416464726573733a2063616c6c20746f206e6f6e2d636f6e7472616374000000600082015250565b7f5361666545524332303a204552433230206f7065726174696f6e20646964206e60008201527f6f74207375636365656400000000000000000000000000000000000000000000602082015250565b7f5265656e7472616e637947756172643a207265656e7472616e742063616c6c00600082015250565b6003811061204557612044611d99565b5b50565b61205181611c41565b811461205c57600080fd5b50565b61206881611c65565b811461207357600080fd5b50565b61207f81611ca4565b811461208a57600080fd5b5056fea2646970667358221220cffec0b99d5e400935472bb127315ccd487fe3737a9ec9d3069b6865b97a774d64736f6c6343000801003360806040523480156200001157600080fd5b5060405162001a4238038062001a42833981810160405281019062000037919062000344565b81838160039080519060200190620000519291906200020b565b5080600490805190602001906200006a9291906200020b565b5050506200007f33826200008860201b60201c565b5050506200069d565b600073ffffffffffffffffffffffffffffffffffffffff168273ffffffffffffffffffffffffffffffffffffffff161415620000fb576040517f08c379a0000000000000000000000000000000000000000000000000000000008152600401620000f29062000404565b60405180910390fd5b6200010f600083836200020160201b60201c565b8060026000828254620001239190620004b3565b92505081905550806000808473ffffffffffffffffffffffffffffffffffffffff1673ffffffffffffffffffffffffffffffffffffffff16815260200190815260200160002060008282546200017a9190620004b3565b925050819055508173ffffffffffffffffffffffffffffffffffffffff16600073ffffffffffffffffffffffffffffffffffffffff167fddf252ad1be2c89b69c2b068fc378daa952ba7f163c4a11628f55a4df523b3ef83604051620001e1919062000426565b60405180910390a3620001fd600083836200020660201b60201c565b5050565b505050565b505050565b828054620002199062000550565b90600052602060002090601f0160209004810192826200023d576000855562000289565b82601f106200025857805160ff191683800117855562000289565b8280016001018555821562000289579182015b82811115620002885782518255916020019190600101906200026b565b5b5090506200029891906200029c565b5090565b5b80821115620002b75760008160009055506001016200029d565b5090565b6000620002d2620002cc846200046c565b62000443565b905082815260208101848484011115620002eb57600080fd5b620002f88482856200051a565b509392505050565b600082601f8301126200031257600080fd5b815162000324848260208601620002bb565b91505092915050565b6000815190506200033e8162000683565b92915050565b6000806000606084860312156200035a57600080fd5b600084015167ffffffffffffffff8111156200037557600080fd5b620003838682870162000300565b935050602084015167ffffffffffffffff811115620003a157600080fd5b620003af8682870162000300565b9250506040620003c2868287016200032d565b9150509250925092565b6000620003db601f83620004a2565b9150620003e8826200065a565b602082019050919050565b620003fe8162000510565b82525050565b600060208201905081810360008301526200041f81620003cc565b9050919050565b60006020820190506200043d6000830184620003f3565b92915050565b60006200044f62000462565b90506200045d828262000586565b919050565b6000604051905090565b600067ffffffffffffffff8211156200048a57620004896200061a565b5b620004958262000649565b9050602081019050919050565b600082825260208201905092915050565b6000620004c08262000510565b9150620004cd8362000510565b9250827fffffffffffffffffffffffffffffffffffffffffffffffffffffffffffffffff03821115620005055762000504620005bc565b5b828201905092915050565b6000819050919050565b60005b838110156200053a5780820151818401526020810190506200051d565b838111156200054a576000848401525b50505050565b600060028204905060018216806200056957607f821691505b6020821081141562000580576200057f620005eb565b5b50919050565b620005918262000649565b810181811067ffffffffffffffff82111715620005b357620005b26200061a565b5b80604052505050565b7f4e487b7100000000000000000000000000000000000000000000000000000000600052601160045260246000fd5b7f4e487b7100000000000000000000000000000000000000000000000000000000600052602260045260246000fd5b7f4e487b7100000000000000000000000000000000000000000000000000000000600052604160045260246000fd5b6000601f19601f8301169050919050565b7f45524332303a206d696e7420746f20746865207a65726f206164647265737300600082015250565b6200068e8162000510565b81146200069a57600080fd5b50565b61139580620006ad6000396000f3fe608060405234801561001057600080fd5b50600436106100a95760003560e01c80633950935111610071578063395093511461016857806370a082311461019857806395d89b41146101c8578063a457c2d7146101e6578063a9059cbb14610216578063dd62ed3e14610246576100a9565b806306fdde03146100ae578063095ea7b3146100cc57806318160ddd146100fc57806323b872dd1461011a578063313ce5671461014a575b600080fd5b6100b6610276565b6040516100c39190610e35565b60405180910390f35b6100e660048036038101906100e19190610c83565b610308565b6040516100f39190610e1a565b60405180910390f35b610104610326565b6040516101119190610f37565b60405180910390f35b610134600480360381019061012f9190610c34565b610330565b6040516101419190610e1a565b60405180910390f35b610152610428565b60405161015f9190610f52565b60405180910390f35b610182600480360381019061017d9190610c83565b610431565b60405161018f9190610e1a565b60405180910390f35b6101b260048036038101906101ad9190610bcf565b6104dd565b6040516101bf9190610f37565b60405180910390f35b6101d0610525565b6040516101dd9190610e35565b60405180910390f35b61020060048036038101906101fb9190610c83565b6105b7565b60405161020d9190610e1a565b60405180910390f35b610230600480360381019061022b9190610c83565b6106a2565b60405161023d9190610e1a565b60405180910390f35b610260600480360381019061025b9190610bf8565b6106c0565b60405161026d9190610f37565b60405180910390f35b60606003805461028590611067565b80601f01602080910402602001604051908101604052809291908181526020018280546102b190611067565b80156102fe5780601f106102d3576101008083540402835291602001916102fe565b820191906000526020600020905b8154815290600101906020018083116102e157829003601f168201915b5050505050905090565b600061031c610315610747565b848461074f565b6001905092915050565b6000600254905090565b600061033d84848461091a565b6000600160008673ffffffffffffffffffffffffffffffffffffffff1673ffffffffffffffffffffffffffffffffffffffff1681526020019081526020016000206000610388610747565b73ffffffffffffffffffffffffffffffffffffffff1673ffffffffffffffffffffffffffffffffffffffff16815260200190815260200160002054905082811015610408576040517f08c379a00000000000000000000000000000000000000000000000000000000081526004016103ff90610eb7565b60405180910390fd5b61041c85610414610747565b85840361074f565b60019150509392505050565b60006012905090565b60006104d361043e610747565b84846001600061044c610747565b73ffffffffffffffffffffffffffffffffffffffff1673ffffffffffffffffffffffffffffffffffffffff16815260200190815260200160002060008873ffffffffffffffffffffffffffffffffffffffff1673ffffffffffffffffffffffffffffffffffffffff168152602001908152602001600020546104ce9190610f89565b61074f565b6001905092915050565b60008060008373ffffffffffffffffffffffffffffffffffffffff1673ffffffffffffffffffffffffffffffffffffffff168152602001908152602001600020549050919050565b60606004805461053490611067565b80601f016020809104026020016040519081016040528092919081815260200182805461056090611067565b80156105ad5780601f10610582576101008083540402835291602001916105ad565b820191906000526020600020905b81548152906001019060200180831161059057829003601f168201915b5050505050905090565b600080600160006105c6610747565b73ffffffffffffffffffffffffffffffffffffffff1673ffffffffffffffffffffffffffffffffffffffff16815260200190815260200160002060008573ffffffffffffffffffffffffffffffffffffffff1673ffffffffffffffffffffffffffffffffffffffff16815260200190815260200160002054905082811015610683576040517f08c379a000000000000000000000000000000000000000000000000000000000815260040161067a90610f17565b60405180910390fd5b61069761068e610747565b8585840361074f565b600191505092915050565b60006106b66106af610747565b848461091a565b6001905092915050565b6000600160008473ffffffffffffffffffffffffffffffffffffffff1673ffffffffffffffffffffffffffffffffffffffff16815260200190815260200160002060008373ffffffffffffffffffffffffffffffffffffffff1673ffffffffffffffffffffffffffffffffffffffff16815260200190815260200160002054905092915050565b600033905090565b600073ffffffffffffffffffffffffffffffffffffffff168373ffffffffffffffffffffffffffffffffffffffff1614156107bf576040517f08c379a00000000000000000000000000000000000000000000000000000000081526004016107b690610ef7565b60405180910390fd5b600073ffffffffffffffffffffffffffffffffffffffff168273ffffffffffffffffffffffffffffffffffffffff16141561082f576040517f08c379a000000000000000000000000000000000000000000000000000000000815260040161082690610e77565b60405180910390fd5b80600160008573ffffffffffffffffffffffffffffffffffffffff1673ffffffffffffffffffffffffffffffffffffffff16815260200190815260200160002060008473ffffffffffffffffffffffffffffffffffffffff1673ffffffffffffffffffffffffffffffffffffffff168152602001908152602001600020819055508173ffffffffffffffffffffffffffffffffffffffff168373ffffffffffffffffffffffffffffffffffffffff167f8c5be1e5ebec7d5bd14f71427d1e84f3dd0314c0f7b2291e5b200ac8c7c3b9258360405161090d9190610f37565b60405180910390a3505050565b600073ffffffffffffffffffffffffffffffffffffffff168373ffffffffffffffffffffffffffffffffffffffff16141561098a576040517f08c379a000000000000000000000000000000000000000000000000000000000815260040161098190610ed7565b60405180910390fd5b600073ffffffffffffffffffffffffffffffffffffffff168273ffffffffffffffffffffffffffffffffffffffff1614156109fa576040517f08c379a00000000000000000000000000000000000000000000000000000000081526004016109f190610e57565b60405180910390fd5b610a05838383610b9b565b60008060008573ffffffffffffffffffffffffffffffffffffffff1673ffffffffffffffffffffffffffffffffffffffff16815260200190815260200160002054905081811015610a8b576040517f08c379a0000000000000000000000000000000000000000000000000000000008152600401610a8290610e97565b60405180910390fd5b8181036000808673ffffffffffffffffffffffffffffffffffffffff1673ffffffffffffffffffffffffffffffffffffffff16815260200190815260200160002081905550816000808573ffffffffffffffffffffffffffffffffffffffff1673ffffffffffffffffffffffffffffffffffffffff1681526020019081526020016000206000828254610b1e9190610f89565b925050819055508273ffffffffffffffffffffffffffffffffffffffff168473ffffffffffffffffffffffffffffffffffffffff167fddf252ad1be2c89b69c2b068fc378daa952ba7f163c4a11628f55a4df523b3ef84604051610b829190610f37565b60405180910390a3610b95848484610ba0565b50505050565b505050565b505050565b600081359050610bb481611331565b92915050565b600081359050610bc981611348565b92915050565b600060208284031215610be157600080fd5b6000610bef84828501610ba5565b91505092915050565b60008060408385031215610c0b57600080fd5b6000610c1985828601610ba5565b9250506020610c2a85828601610ba5565b9150509250929050565b600080600060608486031215610c4957600080fd5b6000610c5786828701610ba5565b9350506020610c6886828701610ba5565b9250506040610c7986828701610bba565b9150509250925092565b60008060408385031215610c9657600080fd5b6000610ca485828601610ba5565b9250506020610cb585828601610bba565b9150509250929050565b610cc881610ff1565b82525050565b6000610cd982610f6d565b610ce38185610f78565b9350610cf3818560208601611034565b610cfc816110f7565b840191505092915050565b6000610d14602383610f78565b9150610d1f82611108565b604082019050919050565b6000610d37602283610f78565b9150610d4282611157565b604082019050919050565b6000610d5a602683610f78565b9150610d65826111a6565b604082019050919050565b6000610d7d602883610f78565b9150610d88826111f5565b604082019050919050565b6000610da0602583610f78565b9150610dab82611244565b604082019050919050565b6000610dc3602483610f78565b9150610dce82611293565b604082019050919050565b6000610de6602583610f78565b9150610df1826112e2565b604082019050919050565b610e058161101d565b82525050565b610e1481611027565b82525050565b6000602082019050610e2f6000830184610cbf565b92915050565b60006020820190508181036000830152610e4f8184610cce565b905092915050565b60006020820190508181036000830152610e7081610d07565b9050919050565b60006020820190508181036000830152610e9081610d2a565b9050919050565b60006020820190508181036000830152610eb081610d4d565b9050919050565b60006020820190508181036000830152610ed081610d70565b9050919050565b60006020820190508181036000830152610ef081610d93565b9050919050565b60006020820190508181036000830152610f1081610db6565b9050919050565b60006020820190508181036000830152610f3081610dd9565b9050919050565b6000602082019050610f4c6000830184610dfc565b92915050565b6000602082019050610f676000830184610e0b565b92915050565b600081519050919050565b600082825260208201905092915050565b6000610f948261101d565b9150610f9f8361101d565b9250827fffffffffffffffffffffffffffffffffffffffffffffffffffffffffffffffff03821115610fd457610fd3611099565b5b828201905092915050565b6000610fea82610ffd565b9050919050565b60008115159050919050565b600073ffffffffffffffffffffffffffffffffffffffff82169050919050565b6000819050919050565b600060ff82169050919050565b60005b83811015611052578082015181840152602081019050611037565b83811115611061576000848401525b50505050565b6000600282049050600182168061107f57607f821691505b60208210811415611093576110926110c8565b5b50919050565b7f4e487b7100000000000000000000000000000000000000000000000000000000600052601160045260246000fd5b7f4e487b7100000000000000000000000000000000000000000000000000000000600052602260045260246000fd5b6000601f19601f8301169050919050565b7f45524332303a207472616e7366657220746f20746865207a65726f206164647260008201527f6573730000000000000000000000000000000000000000000000000000000000602082015250565b7f45524332303a20617070726f766520746f20746865207a65726f20616464726560008201527f7373000000000000000000000000000000000000000000000000000000000000602082015250565b7f45524332303a207472616e7366657220616d6f756e742065786365656473206260008201527f616c616e63650000000000000000000000000000000000000000000000000000602082015250565b7f45524332303a207472616e7366657220616d6f756e742065786365656473206160008201527f6c6c6f77616e6365000000000000000000000000000000000000000000000000602082015250565b7f45524332303a207472616e736665722066726f6d20746865207a65726f20616460008201527f6472657373000000000000000000000000000000000000000000000000000000602082015250565b7f45524332303a20617070726f76652066726f6d20746865207a65726f2061646460008201527f7265737300000000000000000000000000000000000000000000000000000000602082015250565b7f45524332303a2064656372656173656420616c6c6f77616e63652062656c6f7760008201527f207a65726f000000000000000000000000000000000000000000000000000000602082015250565b61133a81610fdf565b811461134557600080fd5b50565b6113518161101d565b811461135c57600080fd5b5056fea2646970667358221220cabd5a86cffe519f99392ea7fe7081fd8cae041532d075a358c789ac276b09aa64736f6c63430008010033",
  "immutableReferences": {},
  "source": "// SPDX-License-Identifier: MIT\npragma solidity ^0.8.0;\nimport \"@openzeppelin/contracts/token/ERC20/utils/SafeERC20.sol\";\nimport \"@openzeppelin/contracts/utils/math/SafeMath.sol\";\nimport \"@openzeppelin/contracts/access/Ownable.sol\";\nimport \"@openzeppelin/contracts/security/ReentrancyGuard.sol\";\nimport \"./token/Token.sol\";\nimport \"./oracle/PriceOracle.sol\";\n\ncontract ICO is Ownable, ReentrancyGuard {\n    using SafeERC20 for Token;\n    using SafeMath for uint256;\n\n    Token public token; //Address of the Token.\n    PriceOracle public oracle; //Address of the ETH/USD price oracle.\n\n    enum ICOStage {\n        PreSale,\n        SeedSale,\n        FinalSale\n    }\n\n    ICOStage public stage = ICOStage.PreSale;\n\n    address payable public wallet; //Address of the reciever of the Funds.\n    uint256 public weiRaised; //Amount of WEI raised in the ICO.\n    uint256 public totalTokensPurchased; //Total amount of tokens that have been purchased.\n\n    uint256 public maxTokens = 100000000000000000000000000; //100 million\n    uint256 public preSaleRate = 10000000000000000; //0.01\n    uint256 public preSaleTokens = 30000000000000000000000000; //30 million\n    uint256 public seedSaleRate = 20000000000000000; //0.02\n    uint256 public seedSaleTokens = 50000000000000000000000000; //50 million\n    uint256 public finalSaleRate;\n\n    //Events\n    event TokensPurchased(\n        address indexed purchaser,\n        address indexed beneficiary,\n        uint256 value,\n        uint256 amount\n    );\n    event EthRefunded(string text);\n\n    /**\n     * @dev Executed when the ICO contract is deployed.\n     * @param _name Name for the Token.\n     * @param _symbol Symbol for the token.\n     * @param _amount Total Supply for the token.\n     * @param _wallet Address of the wallet to forward funds to.\n     * @param _oracle Address of the ETH/USD price oracle.\n     */\n    constructor(\n        string memory _symbol,\n        string memory _name,\n        uint256 _amount,\n        address payable _wallet,\n        PriceOracle _oracle\n    ) {\n        token = new Token(_symbol, _name, _amount);\n        wallet = _wallet;\n        oracle = _oracle;\n    }\n\n    /**\n     * @dev Function to set the stage of ICO.\n     * @param value Index value for the Stage of ICO.\n     */\n    function setICOStage(uint256 value) public onlyOwner {\n        ICOStage _stage;\n\n        if (uint256(ICOStage.PreSale) == value) {\n            _stage = ICOStage.PreSale;\n        } else if (uint256(ICOStage.SeedSale) == value) {\n            _stage = ICOStage.SeedSale;\n        } else if (uint256(ICOStage.FinalSale) == value) {\n            _stage = ICOStage.FinalSale;\n        }\n\n        stage = _stage;\n    }\n\n    /**\n     * @dev Function to set Rate of ICO token for Final Sale.\n     * @param _finalSaleRate Rate of token in Final sale.\n     */\n    function setFinalSaleRate(uint256 _finalSaleRate) public onlyOwner {\n        finalSaleRate = _finalSaleRate;\n    }\n\n    /**\n     * @dev Validation of an incoming purchase.\n     * @param beneficiary Address performing the token purchase\n     * @param weiAmount Value in wei involved in the purchase\n     */\n    function _preValidatePurchase(address beneficiary, uint256 weiAmount)\n        internal\n        view\n    {\n        require(\n            beneficiary != address(0),\n            \"ICO: beneficiary is the zero address\"\n        );\n        require(weiAmount != 0, \"ICO: weiAmount is 0\");\n        this;\n    }\n\n    /**\n     * @dev Determines how ETH is stored/forwarded on purchases.\n     */\n    function _forwardFunds() internal {\n        wallet.transfer(msg.value);\n    }\n\n    /**\n     * @dev Executed when a purchase has been validated and is ready to be executed.\n     * @param beneficiary Address receiving the tokens\n     * @param tokenAmount Number of tokens to be purchased\n     */\n    function _processPurchase(address beneficiary, uint256 tokenAmount)\n        internal\n    {\n        token.safeTransfer(beneficiary, tokenAmount);\n    }\n\n    /**\n     * @dev Function containing logic for how ether is converted to tokens.\n     * @param weiAmount Value in wei to be converted into tokens\n     * @return Number of tokens that can be purchased with the specified _weiAmount\n     */\n    function _getTokenAmount(uint256 weiAmount)\n        internal\n        view\n        returns (uint256)\n    {\n        uint256 ethToUSD = oracle.getETHPrice();\n        uint256 depositNAV = ethToUSD.mul(weiAmount);\n\n        if (stage == ICOStage.PreSale) return depositNAV.div(preSaleRate);\n        if (stage == ICOStage.SeedSale) return depositNAV.div(seedSaleRate);\n        if (stage == ICOStage.FinalSale) return depositNAV.div(finalSaleRate);\n        return 0;\n    }\n\n    /**\n     * @dev Function to purchase tokens.\n     * @param beneficiary Recipient of the token purchase\n     */\n    function buyTokens(address beneficiary) public payable nonReentrant {\n        uint256 weiAmount = msg.value;\n        _preValidatePurchase(beneficiary, weiAmount);\n\n        uint256 tokens = _getTokenAmount(weiAmount);\n\n        if (\n            (stage == ICOStage.PreSale) &&\n            (totalTokensPurchased + tokens > preSaleTokens)\n        ) {\n            payable(msg.sender).transfer(msg.value); // Refund them\n            EthRefunded(\"Pre Sale Limit Hit\");\n            return;\n        } else if (\n            (stage == ICOStage.SeedSale) &&\n            (totalTokensPurchased + tokens > preSaleTokens + seedSaleTokens)\n        ) {\n            payable(msg.sender).transfer(msg.value); // Refund them\n            EthRefunded(\"Seed Sale Limit Hit\");\n            return;\n        } else if (\n            (stage == ICOStage.FinalSale) &&\n            (totalTokensPurchased + tokens > maxTokens)\n        ) {\n            payable(msg.sender).transfer(msg.value); // Refund them\n            EthRefunded(\"Final Sale Limit Hit\");\n            return;\n        }\n\n        weiRaised = weiRaised.add(weiAmount);\n        totalTokensPurchased = totalTokensPurchased.add(tokens);\n\n        _processPurchase(beneficiary, tokens);\n        emit TokensPurchased(_msgSender(), beneficiary, weiAmount, tokens);\n\n        _forwardFunds();\n    }\n\n    /**\n     * @dev Fallback function. if provided gas is 2300 it would revert, use buyTokens function instead.\n     */\n    fallback() external payable {\n        buyTokens(_msgSender());\n    }\n}\n",
  "sourcePath": "/home/beno/Desktop/Projects/ICO-demo/contracts/ICO.sol",
  "compiler": {
    "name": "solc",
    "version": "0.8.1+commit.df193b15.Emscripten.clang"
  },
  "schemaVersion": "3.4.1",
  "updatedAt": "2021-09-26T10:35:30.853Z",
  "devdoc": {
    "kind": "dev",
    "methods": {
      "buyTokens(address)": {
        "details": "Function to purchase tokens.",
        "params": {
          "beneficiary": "Recipient of the token purchase"
        }
      },
      "constructor": {
        "details": "Executed when the ICO contract is deployed.",
        "params": {
          "_amount": "Total Supply for the token.",
          "_name": "Name for the Token.",
          "_oracle": "Address of the ETH/USD price oracle.",
          "_symbol": "Symbol for the token.",
          "_wallet": "Address of the wallet to forward funds to."
        }
      },
      "owner()": {
        "details": "Returns the address of the current owner."
      },
      "renounceOwnership()": {
        "details": "Leaves the contract without owner. It will not be possible to call `onlyOwner` functions anymore. Can only be called by the current owner. NOTE: Renouncing ownership will leave the contract without an owner, thereby removing any functionality that is only available to the owner."
      },
      "setFinalSaleRate(uint256)": {
        "details": "Function to set Rate of ICO token for Final Sale.",
        "params": {
          "_finalSaleRate": "Rate of token in Final sale."
        }
      },
      "setICOStage(uint256)": {
        "details": "Function to set the stage of ICO.",
        "params": {
          "value": "Index value for the Stage of ICO."
        }
      },
      "transferOwnership(address)": {
        "details": "Transfers ownership of the contract to a new account (`newOwner`). Can only be called by the current owner."
      }
    },
    "version": 1
  },
  "userdoc": {
    "kind": "user",
    "methods": {},
    "version": 1
  }
}