{
  "contractName": "PriceOracle",
  "abi": [
    {
      "inputs": [
        {
          "internalType": "address",
          "name": "_feedAddress",
          "type": "address"
        }
      ],
      "stateMutability": "nonpayable",
      "type": "constructor"
    },
    {
      "anonymous": false,
      "inputs": [
        {
          "indexed": true,
          "internalType": "address",
          "name": "previousOwner",
          "type": "address"
        },
        {
          "indexed": true,
          "internalType": "address",
          "name": "newOwner",
          "type": "address"
        }
      ],
      "name": "OwnershipTransferred",
      "type": "event"
    },
    {
      "inputs": [],
      "name": "feedAddress",
      "outputs": [
        {
          "internalType": "address",
          "name": "",
          "type": "address"
        }
      ],
      "stateMutability": "view",
      "type": "function"
    },
    {
      "inputs": [
        {
          "internalType": "address",
          "name": "feedAddress",
          "type": "address"
        }
      ],
      "name": "getLatestPrice",
      "outputs": [
        {
          "internalType": "int256",
          "name": "",
          "type": "int256"
        },
        {
          "internalType": "uint256",
          "name": "",
          "type": "uint256"
        },
        {
          "internalType": "uint8",
          "name": "",
          "type": "uint8"
        }
      ],
      "stateMutability": "view",
      "type": "function"
    },
    {
      "inputs": [],
      "name": "owner",
      "outputs": [
        {
          "internalType": "address",
          "name": "",
          "type": "address"
        }
      ],
      "stateMutability": "view",
      "type": "function"
    },
    {
      "inputs": [],
      "name": "renounceOwnership",
      "outputs": [],
      "stateMutability": "nonpayable",
      "type": "function"
    },
    {
      "inputs": [
        {
          "internalType": "address",
          "name": "newOwner",
          "type": "address"
        }
      ],
      "name": "transferOwnership",
      "outputs": [],
      "stateMutability": "nonpayable",
      "type": "function"
    },
    {
      "inputs": [
        {
          "internalType": "address",
          "name": "_feedAddress",
          "type": "address"
        }
      ],
      "name": "setETHFeed",
      "outputs": [],
      "stateMutability": "nonpayable",
      "type": "function"
    },
    {
      "inputs": [],
      "name": "getETHPrice",
      "outputs": [
        {
          "internalType": "uint256",
          "name": "",
          "type": "uint256"
        }
      ],
      "stateMutability": "view",
      "type": "function"
    }
  ],
  "bytecode": "0x608060405234801561001057600080fd5b5060405162000f4738038062000f4783398181016040528101906100349190610178565b61005061004561009760201b60201c565b61009f60201b60201c565b80600160006101000a81548173ffffffffffffffffffffffffffffffffffffffff021916908373ffffffffffffffffffffffffffffffffffffffff160217905550506101ea565b600033905090565b60008060009054906101000a900473ffffffffffffffffffffffffffffffffffffffff169050816000806101000a81548173ffffffffffffffffffffffffffffffffffffffff021916908373ffffffffffffffffffffffffffffffffffffffff1602179055508173ffffffffffffffffffffffffffffffffffffffff168173ffffffffffffffffffffffffffffffffffffffff167f8be0079c531659141344cd1fd0a4f28419497f9722a3daafe3b4186f6b6457e060405160405180910390a35050565b600081519050610172816101d3565b92915050565b60006020828403121561018a57600080fd5b600061019884828501610163565b91505092915050565b60006101ac826101b3565b9050919050565b600073ffffffffffffffffffffffffffffffffffffffff82169050919050565b6101dc816101a1565b81146101e757600080fd5b50565b610d4d80620001fa6000396000f3fe608060405234801561001057600080fd5b506004361061007d5760003560e01c80637aa6636a1161005b5780637aa6636a146100dc5780638da5cb5b146100f8578063a607a8d914610116578063f2fde38b146101345761007d565b806316345f181461008257806329c36bb5146100b4578063715018a6146100d2575b600080fd5b61009c6004803603810190610097919061071f565b610150565b6040516100ab93929190610885565b60405180910390f35b6100bc610277565b6040516100c9919061086a565b60405180910390f35b6100da61029d565b005b6100f660048036038101906100f1919061071f565b610325565b005b6101006103e5565b60405161010d919061086a565b60405180910390f35b61011e61040e565b60405161012b91906108fc565b60405180910390f35b61014e6004803603810190610149919061071f565b6104c6565b005b6000806000808490506000808273ffffffffffffffffffffffffffffffffffffffff1663feaf968c6040518163ffffffff1660e01b815260040160a06040518083038186803b1580156101a257600080fd5b505afa1580156101b6573d6000803e3d6000fd5b505050506040513d601f19601f820116820180604052508101906101da9190610748565b5093505092505060008373ffffffffffffffffffffffffffffffffffffffff1663313ce5676040518163ffffffff1660e01b815260040160206040518083038186803b15801561022957600080fd5b505afa15801561023d573d6000803e3d6000fd5b505050506040513d601f19601f8201168201806040525081019061026191906107bf565b9050828282965096509650505050509193909250565b600160009054906101000a900473ffffffffffffffffffffffffffffffffffffffff1681565b6102a56105be565b73ffffffffffffffffffffffffffffffffffffffff166102c36103e5565b73ffffffffffffffffffffffffffffffffffffffff1614610319576040517f08c379a0000000000000000000000000000000000000000000000000000000008152600401610310906108dc565b60405180910390fd5b61032360006105c6565b565b61032d6105be565b73ffffffffffffffffffffffffffffffffffffffff1661034b6103e5565b73ffffffffffffffffffffffffffffffffffffffff16146103a1576040517f08c379a0000000000000000000000000000000000000000000000000000000008152600401610398906108dc565b60405180910390fd5b80600160006101000a81548173ffffffffffffffffffffffffffffffffffffffff021916908373ffffffffffffffffffffffffffffffffffffffff16021790555050565b60008060009054906101000a900473ffffffffffffffffffffffffffffffffffffffff16905090565b600080600061043e600160009054906101000a900473ffffffffffffffffffffffffffffffffffffffff16610150565b925050915060128160ff1610156104865761047d81601261045f9190610b24565b60ff16600a61046e91906109ac565b8361068a90919063ffffffff16565b925050506104c3565b60128160ff1611156104bd576104b46012826104a29190610b24565b60ff16836106a090919063ffffffff16565b925050506104c3565b81925050505b90565b6104ce6105be565b73ffffffffffffffffffffffffffffffffffffffff166104ec6103e5565b73ffffffffffffffffffffffffffffffffffffffff1614610542576040517f08c379a0000000000000000000000000000000000000000000000000000000008152600401610539906108dc565b60405180910390fd5b600073ffffffffffffffffffffffffffffffffffffffff168173ffffffffffffffffffffffffffffffffffffffff1614156105b2576040517f08c379a00000000000000000000000000000000000000000000000000000000081526004016105a9906108bc565b60405180910390fd5b6105bb816105c6565b50565b600033905090565b60008060009054906101000a900473ffffffffffffffffffffffffffffffffffffffff169050816000806101000a81548173ffffffffffffffffffffffffffffffffffffffff021916908373ffffffffffffffffffffffffffffffffffffffff1602179055508173ffffffffffffffffffffffffffffffffffffffff168173ffffffffffffffffffffffffffffffffffffffff167f8be0079c531659141344cd1fd0a4f28419497f9722a3daafe3b4186f6b6457e060405160405180910390a35050565b600081836106989190610aca565b905092915050565b600081836106ae9190610928565b905092915050565b6000813590506106c581610ca4565b92915050565b6000815190506106da81610cbb565b92915050565b6000815190506106ef81610cd2565b92915050565b60008151905061070481610d00565b92915050565b60008151905061071981610ce9565b92915050565b60006020828403121561073157600080fd5b600061073f848285016106b6565b91505092915050565b600080600080600060a0868803121561076057600080fd5b600061076e888289016106f5565b955050602061077f888289016106cb565b9450506040610790888289016106e0565b93505060606107a1888289016106e0565b92505060806107b2888289016106f5565b9150509295509295909350565b6000602082840312156107d157600080fd5b60006107df8482850161070a565b91505092915050565b6107f181610b58565b82525050565b61080081610b6a565b82525050565b6000610813602683610917565b915061081e82610c2c565b604082019050919050565b6000610836602083610917565b915061084182610c7b565b602082019050919050565b61085581610b94565b82525050565b61086481610b9e565b82525050565b600060208201905061087f60008301846107e8565b92915050565b600060608201905061089a60008301866107f7565b6108a7602083018561084c565b6108b4604083018461085b565b949350505050565b600060208201905081810360008301526108d581610806565b9050919050565b600060208201905081810360008301526108f581610829565b9050919050565b6000602082019050610911600083018461084c565b92915050565b600082825260208201905092915050565b600061093382610b94565b915061093e83610b94565b92508261094e5761094d610bf0565b5b828204905092915050565b6000808291508390505b60018511156109a35780860481111561097f5761097e610bc1565b5b600185161561098e5780820291505b808102905061099c85610c1f565b9450610963565b94509492505050565b60006109b782610b94565b91506109c283610b94565b92506109ef7fffffffffffffffffffffffffffffffffffffffffffffffffffffffffffffffff84846109f7565b905092915050565b600082610a075760019050610ac3565b81610a155760009050610ac3565b8160018114610a2b5760028114610a3557610a64565b6001915050610ac3565b60ff841115610a4757610a46610bc1565b5b8360020a915084821115610a5e57610a5d610bc1565b5b50610ac3565b5060208310610133831016604e8410600b8410161715610a995782820a905083811115610a9457610a93610bc1565b5b610ac3565b610aa68484846001610959565b92509050818404811115610abd57610abc610bc1565b5b81810290505b9392505050565b6000610ad582610b94565b9150610ae083610b94565b9250817fffffffffffffffffffffffffffffffffffffffffffffffffffffffffffffffff0483118215151615610b1957610b18610bc1565b5b828202905092915050565b6000610b2f82610b9e565b9150610b3a83610b9e565b925082821015610b4d57610b4c610bc1565b5b828203905092915050565b6000610b6382610b74565b9050919050565b6000819050919050565b600073ffffffffffffffffffffffffffffffffffffffff82169050919050565b6000819050919050565b600060ff82169050919050565b600069ffffffffffffffffffff82169050919050565b7f4e487b7100000000000000000000000000000000000000000000000000000000600052601160045260246000fd5b7f4e487b7100000000000000000000000000000000000000000000000000000000600052601260045260246000fd5b60008160011c9050919050565b7f4f776e61626c653a206e6577206f776e657220697320746865207a65726f206160008201527f6464726573730000000000000000000000000000000000000000000000000000602082015250565b7f4f776e61626c653a2063616c6c6572206973206e6f7420746865206f776e6572600082015250565b610cad81610b58565b8114610cb857600080fd5b50565b610cc481610b6a565b8114610ccf57600080fd5b50565b610cdb81610b94565b8114610ce657600080fd5b50565b610cf281610b9e565b8114610cfd57600080fd5b50565b610d0981610bab565b8114610d1457600080fd5b5056fea2646970667358221220c68f423488ff18ca9bda95d882221fd3e88ad8025fcedbc3cef465b5ca20045664736f6c63430008010033",
  "immutableReferences": {},
  "source": "// SPDX-License-Identifier: MIT\npragma solidity ^0.8.0;\nimport \"./ChainlinkService.sol\";\nimport \"@openzeppelin/contracts/utils/math/SafeMath.sol\";\nimport \"@openzeppelin/contracts/access/Ownable.sol\";\n\ncontract PriceOracle is ChainlinkService, Ownable {\n    using SafeMath for uint256;\n\n    //ETH feed address\n    address public feedAddress;\n\n    constructor(address _feedAddress) {\n        feedAddress = _feedAddress;\n    }\n\n    function setETHFeed(address _feedAddress) external onlyOwner {\n        feedAddress = _feedAddress;\n    }\n\n    function getETHPrice() public view returns (uint256) {\n        (int256 price, , uint8 decimals) = getLatestPrice(feedAddress);\n\n        if (decimals < 18) {\n            return (uint256(price)).mul(10**uint256(18 - decimals));\n        } else if (decimals > 18) {\n            return (uint256(price)).div(uint256(decimals - 18));\n        } else {\n            return uint256(price);\n        }\n    }\n}\n",
  "sourcePath": "/home/beno/Desktop/Projects/ICO-demo/contracts/oracle/PriceOracle.sol",
  "compiler": {
    "name": "solc",
    "version": "0.8.1+commit.df193b15.Emscripten.clang"
  },
  "schemaVersion": "3.4.1",
  "updatedAt": "2021-09-26T10:35:30.869Z",
  "devdoc": {
    "kind": "dev",
    "methods": {
      "owner()": {
        "details": "Returns the address of the current owner."
      },
      "renounceOwnership()": {
        "details": "Leaves the contract without owner. It will not be possible to call `onlyOwner` functions anymore. Can only be called by the current owner. NOTE: Renouncing ownership will leave the contract without an owner, thereby removing any functionality that is only available to the owner."
      },
      "transferOwnership(address)": {
        "details": "Transfers ownership of the contract to a new account (`newOwner`). Can only be called by the current owner."
      }
    },
    "version": 1
  },
  "userdoc": {
    "kind": "user",
    "methods": {},
    "version": 1
  }
}