{
  "contractName": "TokenUtils",
  "abi": [
    {
      "inputs": [
        {
          "internalType": "address",
          "name": "tokenAddress",
          "type": "address"
        },
        {
          "internalType": "uint256",
          "name": "tokenCount",
          "type": "uint256"
        }
      ],
      "name": "toDecimals",
      "outputs": [
        {
          "internalType": "uint256",
          "name": "",
          "type": "uint256"
        }
      ],
      "stateMutability": "view",
      "type": "function"
    },
    {
      "inputs": [
        {
          "internalType": "address",
          "name": "tokenAddress",
          "type": "address"
        },
        {
          "internalType": "uint256",
          "name": "tokenCount",
          "type": "uint256"
        }
      ],
      "name": "fromDecimals",
      "outputs": [
        {
          "internalType": "uint256",
          "name": "",
          "type": "uint256"
        }
      ],
      "stateMutability": "view",
      "type": "function"
    }
  ],
  "bytecode": "0x610722610053600b82828239805160001a607314610046577f4e487b7100000000000000000000000000000000000000000000000000000000600052600060045260246000fd5b30600052607381538281f3fe73000000000000000000000000000000000000000030146080604052600436106100405760003560e01c8063566ab92714610045578063b2809e1814610075575b600080fd5b61005f600480360381019061005a9190610334565b6100a5565b60405161006c91906103a8565b60405180910390f35b61008f600480360381019061008a9190610334565b6101b7565b60405161009c91906103a8565b60405180910390f35b6000808373ffffffffffffffffffffffffffffffffffffffff1663313ce5676040518163ffffffff1660e01b815260040160206040518083038186803b1580156100ee57600080fd5b505afa158015610102573d6000803e3d6000fd5b505050506040513d601f19601f820116820180604052508101906101269190610370565b905060128160ff16101561016a5761016281601261014491906105bf565b60ff16600a6101539190610447565b846102c990919063ffffffff16565b9150506101b1565b60128160ff1611156101ac576101a460128261018691906105bf565b60ff16600a6101959190610447565b846102df90919063ffffffff16565b9150506101b1565b829150505b92915050565b6000808373ffffffffffffffffffffffffffffffffffffffff1663313ce5676040518163ffffffff1660e01b815260040160206040518083038186803b15801561020057600080fd5b505afa158015610214573d6000803e3d6000fd5b505050506040513d601f19601f820116820180604052508101906102389190610370565b905060128160ff16101561027c5761027481601261025691906105bf565b60ff16600a6102659190610447565b846102df90919063ffffffff16565b9150506102c3565b60128160ff1611156102be576102b660128261029891906105bf565b60ff16600a6102a79190610447565b846102c990919063ffffffff16565b9150506102c3565b829150505b92915050565b600081836102d791906103c3565b905092915050565b600081836102ed9190610565565b905092915050565b600081359050610304816106a7565b92915050565b600081359050610319816106be565b92915050565b60008151905061032e816106d5565b92915050565b6000806040838503121561034757600080fd5b6000610355858286016102f5565b92505060206103668582860161030a565b9150509250929050565b60006020828403121561038257600080fd5b60006103908482850161031f565b91505092915050565b6103a281610625565b82525050565b60006020820190506103bd6000830184610399565b92915050565b60006103ce82610625565b91506103d983610625565b9250826103e9576103e861066b565b5b828204905092915050565b6000808291508390505b600185111561043e5780860481111561041a5761041961063c565b5b60018516156104295780820291505b80810290506104378561069a565b94506103fe565b94509492505050565b600061045282610625565b915061045d83610625565b925061048a7fffffffffffffffffffffffffffffffffffffffffffffffffffffffffffffffff8484610492565b905092915050565b6000826104a2576001905061055e565b816104b0576000905061055e565b81600181146104c657600281146104d0576104ff565b600191505061055e565b60ff8411156104e2576104e161063c565b5b8360020a9150848211156104f9576104f861063c565b5b5061055e565b5060208310610133831016604e8410600b84101617156105345782820a90508381111561052f5761052e61063c565b5b61055e565b61054184848460016103f4565b925090508184048111156105585761055761063c565b5b81810290505b9392505050565b600061057082610625565b915061057b83610625565b9250817fffffffffffffffffffffffffffffffffffffffffffffffffffffffffffffffff04831182151516156105b4576105b361063c565b5b828202905092915050565b60006105ca8261062f565b91506105d58361062f565b9250828210156105e8576105e761063c565b5b828203905092915050565b60006105fe82610605565b9050919050565b600073ffffffffffffffffffffffffffffffffffffffff82169050919050565b6000819050919050565b600060ff82169050919050565b7f4e487b7100000000000000000000000000000000000000000000000000000000600052601160045260246000fd5b7f4e487b7100000000000000000000000000000000000000000000000000000000600052601260045260246000fd5b60008160011c9050919050565b6106b0816105f3565b81146106bb57600080fd5b50565b6106c781610625565b81146106d257600080fd5b50565b6106de8161062f565b81146106e957600080fd5b5056fea2646970667358221220fcc56177ad3d4ed6dd09f24bec221ec404da42d7f1611ce1dc4eb7a7afe7eccb64736f6c63430008010033",
  "immutableReferences": {},
  "source": "// SPDX-License-Identifier: MIT\npragma solidity ^0.8.0;\nimport \"@openzeppelin/contracts/utils/math/SafeMath.sol\";\n\ninterface IToken {\n    function decimals() external view returns (uint8);\n}\n\nlibrary TokenUtils {\n    using SafeMath for uint256;\n\n    function toDecimals(address tokenAddress, uint256 tokenCount)\n        public\n        view\n        returns (uint256)\n    {\n        uint8 decimals = IToken(tokenAddress).decimals();\n        if (decimals < 18) {\n            return tokenCount.mul(10**uint256(18 - decimals));\n        } else if (decimals > 18) {\n            return tokenCount.div(10**uint256(decimals - 18));\n        } else {\n            return tokenCount;\n        }\n    }\n\n    function fromDecimals(address tokenAddress, uint256 tokenCount)\n        public\n        view\n        returns (uint256)\n    {\n        uint8 decimals = IToken(tokenAddress).decimals();\n        if (decimals < 18) {\n            return tokenCount.div(10**uint256(18 - decimals));\n        } else if (decimals > 18) {\n            return tokenCount.mul(10**uint256(decimals - 18));\n        } else {\n            return tokenCount;\n        }\n    }\n}\n",
  "sourcePath": "/home/beno/Desktop/Projects/ICO-demo/contracts/utils/TokenUtils.sol",
  "compiler": {
    "name": "solc",
    "version": "0.8.1+commit.df193b15.Emscripten.clang"
  },
  "schemaVersion": "3.4.1",
  "updatedAt": "2021-09-26T07:09:55.215Z",
  "devdoc": {
    "kind": "dev",
    "methods": {},
    "version": 1
  },
  "userdoc": {
    "kind": "user",
    "methods": {},
    "version": 1
  }
}